{
  "contractName": "Lottery",
  "abi": [
    {
      "inputs": [],
      "stateMutability": "nonpayable",
      "type": "constructor"
    },
    {
      "inputs": [],
      "name": "lotteryId",
      "outputs": [
        {
          "internalType": "uint256",
          "name": "",
          "type": "uint256"
        }
      ],
      "stateMutability": "view",
      "type": "function",
      "constant": true
    },
    {
      "inputs": [],
      "name": "owner",
      "outputs": [
        {
          "internalType": "address",
          "name": "",
          "type": "address"
        }
      ],
      "stateMutability": "view",
      "type": "function",
      "constant": true
    },
    {
      "inputs": [
        {
          "internalType": "uint256",
          "name": "",
          "type": "uint256"
        }
      ],
      "name": "players",
      "outputs": [
        {
          "internalType": "address payable",
          "name": "",
          "type": "address"
        }
      ],
      "stateMutability": "view",
      "type": "function",
      "constant": true
    },
    {
      "inputs": [
        {
          "internalType": "uint256",
          "name": "",
          "type": "uint256"
        }
      ],
      "name": "winners",
      "outputs": [
        {
          "internalType": "address",
          "name": "",
          "type": "address"
        }
      ],
      "stateMutability": "view",
      "type": "function",
      "constant": true
    },
    {
      "inputs": [],
      "name": "enter",
      "outputs": [],
      "stateMutability": "payable",
      "type": "function",
      "payable": true
    },
    {
      "inputs": [],
      "name": "getPlayers",
      "outputs": [
        {
          "internalType": "address payable[]",
          "name": "",
          "type": "address[]"
        }
      ],
      "stateMutability": "view",
      "type": "function",
      "constant": true
    },
    {
      "inputs": [],
      "name": "getBalance",
      "outputs": [
        {
          "internalType": "uint256",
          "name": "",
          "type": "uint256"
        }
      ],
      "stateMutability": "view",
      "type": "function",
      "constant": true
    },
    {
      "inputs": [],
      "name": "getLotteryId",
      "outputs": [
        {
          "internalType": "uint256",
          "name": "",
          "type": "uint256"
        }
      ],
      "stateMutability": "view",
      "type": "function",
      "constant": true
    },
    {
      "inputs": [],
      "name": "getRandomNumber",
      "outputs": [
        {
          "internalType": "uint256",
          "name": "",
          "type": "uint256"
        }
      ],
      "stateMutability": "view",
      "type": "function",
      "constant": true
    },
    {
      "inputs": [],
      "name": "pickWinner",
      "outputs": [],
      "stateMutability": "nonpayable",
      "type": "function"
    },
    {
      "inputs": [],
      "name": "getWinners",
      "outputs": [
        {
          "internalType": "address[]",
          "name": "",
          "type": "address[]"
        }
      ],
      "stateMutability": "view",
      "type": "function",
      "constant": true
    }
  ],
  "bytecode": "0x608060405234801561001057600080fd5b50336000806101000a81548173ffffffffffffffffffffffffffffffffffffffff021916908373ffffffffffffffffffffffffffffffffffffffff1602179055506000600381905550610d8c806100686000396000f3fe60806040526004361061009c5760003560e01c8063a2fb117511610064578063a2fb117514610164578063dbdff2c1146101a1578063df15c37e146101cc578063e580f47b146101f7578063e97dcb6214610222578063f71d96cb1461022c5761009c565b806312065fe0146100a15780635d495aea146100cc5780638b5b9ccc146100e35780638da5cb5b1461010e578063900aafaf14610139575b600080fd5b3480156100ad57600080fd5b506100b6610269565b6040516100c39190610818565b60405180910390f35b3480156100d857600080fd5b506100e1610271565b005b3480156100ef57600080fd5b506100f86104bc565b6040516101059190610923565b60405180910390f35b34801561011a57600080fd5b5061012361054a565b6040516101309190610966565b60405180910390f35b34801561014557600080fd5b5061014e61056e565b60405161015b9190610818565b60405180910390f35b34801561017057600080fd5b5061018b600480360381019061018691906109b2565b610578565b6040516101989190610966565b60405180910390f35b3480156101ad57600080fd5b506101b66105b7565b6040516101c39190610818565b60405180910390f35b3480156101d857600080fd5b506101e161060b565b6040516101ee9190610a9d565b60405180910390f35b34801561020357600080fd5b5061020c610699565b6040516102199190610818565b60405180910390f35b61022a61069f565b005b34801561023857600080fd5b50610253600480360381019061024e91906109b2565b610719565b6040516102609190610ace565b60405180910390f35b600047905090565b60008054906101000a900473ffffffffffffffffffffffffffffffffffffffff1673ffffffffffffffffffffffffffffffffffffffff163373ffffffffffffffffffffffffffffffffffffffff16146102ff576040517f08c379a00000000000000000000000000000000000000000000000000000000081526004016102f690610b6c565b60405180910390fd5b600060018054905061030f6105b7565b6103199190610bbb565b90506001818154811061032f5761032e610bec565b5b9060005260206000200160009054906101000a900473ffffffffffffffffffffffffffffffffffffffff1673ffffffffffffffffffffffffffffffffffffffff166108fc479081150290604051600060405180830381858888f1935050505015801561039f573d6000803e3d6000fd5b506002600182815481106103b6576103b5610bec565b5b9060005260206000200160009054906101000a900473ffffffffffffffffffffffffffffffffffffffff169080600181540180825580915050600190039060005260206000200160009091909190916101000a81548173ffffffffffffffffffffffffffffffffffffffff021916908373ffffffffffffffffffffffffffffffffffffffff1602179055506003600081548092919061045490610c4a565b9190505550600067ffffffffffffffff81111561047457610473610c92565b5b6040519080825280602002602001820160405280156104a25781602001602082028036833780820191505090505b50600190805190602001906104b8929190610758565b5050565b6060600180548060200260200160405190810160405280929190818152602001828054801561054057602002820191906000526020600020905b8160009054906101000a900473ffffffffffffffffffffffffffffffffffffffff1673ffffffffffffffffffffffffffffffffffffffff16815260200190600101908083116104f6575b5050505050905090565b60008054906101000a900473ffffffffffffffffffffffffffffffffffffffff1681565b6000600354905090565b6002818154811061058857600080fd5b906000526020600020016000915054906101000a900473ffffffffffffffffffffffffffffffffffffffff1681565b60008060009054906101000a900473ffffffffffffffffffffffffffffffffffffffff16426040516020016105ed929190610d2a565b6040516020818303038152906040528051906020012060001c905090565b6060600280548060200260200160405190810160405280929190818152602001828054801561068f57602002820191906000526020600020905b8160009054906101000a900473ffffffffffffffffffffffffffffffffffffffff1673ffffffffffffffffffffffffffffffffffffffff1681526020019060010190808311610645575b5050505050905090565b60035481565b67016345785d8a00003410156106b457600080fd5b6001339080600181540180825580915050600190039060005260206000200160009091909190916101000a81548173ffffffffffffffffffffffffffffffffffffffff021916908373ffffffffffffffffffffffffffffffffffffffff160217905550565b6001818154811061072957600080fd5b906000526020600020016000915054906101000a900473ffffffffffffffffffffffffffffffffffffffff1681565b8280548282559060005260206000209081019282156107d1579160200282015b828111156107d05782518260006101000a81548173ffffffffffffffffffffffffffffffffffffffff021916908373ffffffffffffffffffffffffffffffffffffffff16021790555091602001919060010190610778565b5b5090506107de91906107e2565b5090565b5b808211156107fb5760008160009055506001016107e3565b5090565b6000819050919050565b610812816107ff565b82525050565b600060208201905061082d6000830184610809565b92915050565b600081519050919050565b600082825260208201905092915050565b6000819050602082019050919050565b600073ffffffffffffffffffffffffffffffffffffffff82169050919050565b600061088a8261085f565b9050919050565b61089a8161087f565b82525050565b60006108ac8383610891565b60208301905092915050565b6000602082019050919050565b60006108d082610833565b6108da818561083e565b93506108e58361084f565b8060005b838110156109165781516108fd88826108a0565b9750610908836108b8565b9250506001810190506108e9565b5085935050505092915050565b6000602082019050818103600083015261093d81846108c5565b905092915050565b60006109508261085f565b9050919050565b61096081610945565b82525050565b600060208201905061097b6000830184610957565b92915050565b600080fd5b61098f816107ff565b811461099a57600080fd5b50565b6000813590506109ac81610986565b92915050565b6000602082840312156109c8576109c7610981565b5b60006109d68482850161099d565b91505092915050565b600081519050919050565b600082825260208201905092915050565b6000819050602082019050919050565b610a1481610945565b82525050565b6000610a268383610a0b565b60208301905092915050565b6000602082019050919050565b6000610a4a826109df565b610a5481856109ea565b9350610a5f836109fb565b8060005b83811015610a90578151610a778882610a1a565b9750610a8283610a32565b925050600181019050610a63565b5085935050505092915050565b60006020820190508181036000830152610ab78184610a3f565b905092915050565b610ac88161087f565b82525050565b6000602082019050610ae36000830184610abf565b92915050565b600082825260208201905092915050565b7f4f6e6c7920746865206f776e65722063616e207069636b207468652077696e6e60008201527f65722e0000000000000000000000000000000000000000000000000000000000602082015250565b6000610b56602383610ae9565b9150610b6182610afa565b604082019050919050565b60006020820190508181036000830152610b8581610b49565b9050919050565b7f4e487b7100000000000000000000000000000000000000000000000000000000600052601260045260246000fd5b6000610bc6826107ff565b9150610bd1836107ff565b925082610be157610be0610b8c565b5b828206905092915050565b7f4e487b7100000000000000000000000000000000000000000000000000000000600052603260045260246000fd5b7f4e487b7100000000000000000000000000000000000000000000000000000000600052601160045260246000fd5b6000610c55826107ff565b91507fffffffffffffffffffffffffffffffffffffffffffffffffffffffffffffffff8203610c8757610c86610c1b565b5b600182019050919050565b7f4e487b7100000000000000000000000000000000000000000000000000000000600052604160045260246000fd5b60008160601b9050919050565b6000610cd982610cc1565b9050919050565b6000610ceb82610cce565b9050919050565b610d03610cfe82610945565b610ce0565b82525050565b6000819050919050565b610d24610d1f826107ff565b610d09565b82525050565b6000610d368285610cf2565b601482019150610d468284610d13565b602082019150819050939250505056fea2646970667358221220a04602fd35ed31a88dd87ced98122f7ddaba7880586ba181092a52e32cf7607764736f6c634300080f0033",
  "immutableReferences": {},
  "source": "// SPDX-License-Identifier: MIT\n\npragma solidity ^0.8.15;\n\ncontract Lottery {\n    //state Storage Variables\n\n    address public owner;\n    address payable[] public players;\n    address[] public winners;\n    uint public lotteryId;\n\n    constructor() {\n        owner = msg.sender;\n        lotteryId = 0;\n    }\n\n    //Enter Function\n    function enter() public payable {\n        require(msg.value >= 0.1 ether);\n        players.push(payable(msg.sender));\n    }\n\n    //Get Players\n    function getPlayers() public view returns (address payable[] memory) {\n        return players;\n    }\n\n    //Get Balnce\n    function getBalance() public view returns (uint) {\n        //Solidity Works In WEI\n        return address(this).balance;\n    }\n\n    //Get Lottery Id\n    function getLotteryId() public view returns (uint) {\n        return lotteryId;\n    }\n\n    //Get Random Number (helper function for picking winner)\n    function getRandomNumber() public view returns (uint) {\n        return uint(keccak256(abi.encodePacked(owner, block.timestamp)));\n    }\n\n    //Pick Winner\n    function pickWinner() public {\n        //only the owner can pick Winner\n        require(msg.sender == owner, \"Only the owner can pick the winner.\");\n\n        uint randomIndex = getRandomNumber() % players.length;\n        players[randomIndex].transfer(address(this).balance);\n        winners.push(players[randomIndex]);\n        lotteryId++;\n\n        //Clear the players array. ['player1', 'player2']==[]\n        players = new address payable[](0);\n    }\n\n    function getWinners() public view returns (address[] memory) {\n        return winners;\n    }\n}\n",
  "sourcePath": "/home/xhunteq/Desktop/PROJECTS/lottery-dapp/backend/contracts/Lottery.sol",
  "compiler": {
    "name": "solc",
    "version": "0.8.15+commit.e14f2714.Emscripten.clang"
  },
  "schemaVersion": "3.4.13",
  "updatedAt": "2023-05-12T05:05:29.574Z",
  "networkType": "ethereum",
  "devdoc": {
    "kind": "dev",
    "methods": {},
    "version": 1
  },
  "userdoc": {
    "kind": "user",
    "methods": {},
    "version": 1
  }
}